{
  "contractName": "AirportDatabase",
  "abi": [
    {
      "constant": true,
      "inputs": [
        {
          "name": "",
          "type": "uint256"
        }
      ],
      "name": "posts",
      "outputs": [
        {
          "name": "id",
          "type": "uint256"
        },
        {
          "name": "filehash",
          "type": "string"
        },
        {
          "name": "filename",
          "type": "string"
        },
        {
          "name": "approval_status",
          "type": "bool"
        },
        {
          "name": "author",
          "type": "address"
        }
      ],
      "payable": false,
      "stateMutability": "view",
      "type": "function",
      "signature": "0x0b1e7f83"
    },
    {
      "constant": true,
      "inputs": [],
      "name": "postCount",
      "outputs": [
        {
          "name": "",
          "type": "uint256"
        }
      ],
      "payable": false,
      "stateMutability": "view",
      "type": "function",
      "signature": "0x17906c2e"
    },
    {
      "anonymous": false,
      "inputs": [
        {
          "indexed": false,
          "name": "id",
          "type": "uint256"
        },
        {
          "indexed": false,
          "name": "filehash",
          "type": "string"
        },
        {
          "indexed": false,
          "name": "filename",
          "type": "string"
        },
        {
          "indexed": false,
          "name": "approval_status",
          "type": "bool"
        },
        {
          "indexed": false,
          "name": "author",
          "type": "address"
        }
      ],
      "name": "PostCreated",
      "type": "event",
      "signature": "0xeec0e629ffc496c1a6db43b823703f58e654ee2379c8495be1e73e072405e4db"
    },
    {
      "anonymous": false,
      "inputs": [
        {
          "indexed": false,
          "name": "id",
          "type": "uint256"
        },
        {
          "indexed": false,
          "name": "filehash",
          "type": "string"
        },
        {
          "indexed": false,
          "name": "filename",
          "type": "string"
        },
        {
          "indexed": false,
          "name": "approval_status",
          "type": "bool"
        },
        {
          "indexed": false,
          "name": "author",
          "type": "address"
        }
      ],
      "name": "PostApproved",
      "type": "event",
      "signature": "0x546c42e1a56b131976d9a36b579e115ce4f7c7f998cc514cc2463b8aa2c49a60"
    },
    {
      "constant": false,
      "inputs": [
        {
          "name": "_filehash",
          "type": "string"
        },
        {
          "name": "_filename",
          "type": "string"
        }
      ],
      "name": "createPost",
      "outputs": [],
      "payable": false,
      "stateMutability": "nonpayable",
      "type": "function",
      "signature": "0x392338f5"
    },
    {
      "constant": false,
      "inputs": [
        {
          "name": "_id",
          "type": "uint256"
        }
      ],
      "name": "approvePost",
      "outputs": [],
      "payable": true,
      "stateMutability": "payable",
      "type": "function",
      "signature": "0x95caa166"
    }
  ],
  "bytecode": "0x60806040526000805534801561001457600080fd5b50610e3e806100246000396000f3fe608060405260043610610062576000357c0100000000000000000000000000000000000000000000000000000000900463ffffffff1680630b1e7f831461006757806317906c2e146101cc578063392338f5146101f757806395caa16614610356575b600080fd5b34801561007357600080fd5b506100a06004803603602081101561008a57600080fd5b8101908080359060200190929190505050610384565b604051808681526020018060200180602001851515151581526020018473ffffffffffffffffffffffffffffffffffffffff1673ffffffffffffffffffffffffffffffffffffffff168152602001838103835287818151815260200191508051906020019080838360005b8381101561012657808201518184015260208101905061010b565b50505050905090810190601f1680156101535780820380516001836020036101000a031916815260200191505b50838103825286818151815260200191508051906020019080838360005b8381101561018c578082015181840152602081019050610171565b50505050905090810190601f1680156101b95780820380516001836020036101000a031916815260200191505b5097505050505050505060405180910390f35b3480156101d857600080fd5b506101e1610517565b6040518082815260200191505060405180910390f35b34801561020357600080fd5b506103546004803603604081101561021a57600080fd5b810190808035906020019064010000000081111561023757600080fd5b82018360208201111561024957600080fd5b8035906020019184600183028401116401000000008311171561026b57600080fd5b91908080601f016020809104026020016040519081016040528093929190818152602001838380828437600081840152601f19601f820116905080830192505050505050509192919290803590602001906401000000008111156102ce57600080fd5b8201836020820111156102e057600080fd5b8035906020019184600183028401116401000000008311171561030257600080fd5b91908080601f016020809104026020016040519081016040528093929190818152602001838380828437600081840152601f19601f82011690508083019250505050505050919291929050505061051d565b005b6103826004803603602081101561036c57600080fd5b810190808035906020019092919050505061087d565b005b6001602052806000526040600020600091509050806000015490806001018054600181600116156101000203166002900480601f0160208091040260200160405190810160405280929190818152602001828054600181600116156101000203166002900480156104365780601f1061040b57610100808354040283529160200191610436565b820191906000526020600020905b81548152906001019060200180831161041957829003601f168201915b505050505090806002018054600181600116156101000203166002900480601f0160208091040260200160405190810160405280929190818152602001828054600181600116156101000203166002900480156104d45780601f106104a9576101008083540402835291602001916104d4565b820191906000526020600020905b8154815290600101906020018083116104b757829003601f168201915b5050505050908060030160009054906101000a900460ff16908060030160019054906101000a900473ffffffffffffffffffffffffffffffffffffffff16905085565b60005481565b60008251111515610596576040517f08c379a000000000000000000000000000000000000000000000000000000000815260040180806020018281038252601c8152602001807f46696c65486173682073686f756c64206e6f7420626520456d7074790000000081525060200191505060405180910390fd5b6000815111151561060f576040517f08c379a000000000000000000000000000000000000000000000000000000000815260040180806020018281038252601c8152602001807f46696c654e616d652073686f756c64206e6f7420626520456d7074790000000081525060200191505060405180910390fd5b600080815480929190600101919050555060a06040519081016040528060005481526020018381526020018281526020016000151581526020013373ffffffffffffffffffffffffffffffffffffffff16815250600160008054815260200190815260200160002060008201518160000155602082015181600101908051906020019061069d929190610d25565b5060408201518160020190805190602001906106ba929190610d25565b5060608201518160030160006101000a81548160ff02191690831515021790555060808201518160030160016101000a81548173ffffffffffffffffffffffffffffffffffffffff021916908373ffffffffffffffffffffffffffffffffffffffff1602179055509050507feec0e629ffc496c1a6db43b823703f58e654ee2379c8495be1e73e072405e4db6000548383600033604051808681526020018060200180602001851515151581526020018473ffffffffffffffffffffffffffffffffffffffff1673ffffffffffffffffffffffffffffffffffffffff168152602001838103835287818151815260200191508051906020019080838360005b838110156107d45780820151818401526020810190506107b9565b50505050905090810190601f1680156108015780820380516001836020036101000a031916815260200191505b50838103825286818151815260200191508051906020019080838360005b8381101561083a57808201518184015260208101905061081f565b50505050905090810190601f1680156108675780820380516001836020036101000a031916815260200191505b5097505050505050505060405180910390a15050565b60008111801561088f57506000548111155b1515610903576040517f08c379a00000000000000000000000000000000000000000000000000000000081526004018080602001828103825260168152602001807f506f737420646f65736e6f74206578697374205965740000000000000000000081525060200191505060405180910390fd5b61090b610da5565b6001600083815260200190815260200160002060a0604051908101604052908160008201548152602001600182018054600181600116156101000203166002900480601f0160208091040260200160405190810160405280929190818152602001828054600181600116156101000203166002900480156109cd5780601f106109a2576101008083540402835291602001916109cd565b820191906000526020600020905b8154815290600101906020018083116109b057829003601f168201915b50505050508152602001600282018054600181600116156101000203166002900480601f016020809104026020016040519081016040528092919081815260200182805460018160011615610100020316600290048015610a6f5780601f10610a4457610100808354040283529160200191610a6f565b820191906000526020600020905b815481529060010190602001808311610a5257829003601f168201915b505050505081526020016003820160009054906101000a900460ff161515151581526020016003820160019054906101000a900473ffffffffffffffffffffffffffffffffffffffff1673ffffffffffffffffffffffffffffffffffffffff1673ffffffffffffffffffffffffffffffffffffffff1681525050905060018160600190151590811515815250508060016000848152602001908152602001600020600082015181600001556020820151816001019080519060200190610b36929190610d25565b506040820151816002019080519060200190610b53929190610d25565b5060608201518160030160006101000a81548160ff02191690831515021790555060808201518160030160016101000a81548173ffffffffffffffffffffffffffffffffffffffff021916908373ffffffffffffffffffffffffffffffffffffffff1602179055509050507f546c42e1a56b131976d9a36b579e115ce4f7c7f998cc514cc2463b8aa2c49a606000548260200151836040015184606001518560800151604051808681526020018060200180602001851515151581526020018473ffffffffffffffffffffffffffffffffffffffff1673ffffffffffffffffffffffffffffffffffffffff168152602001838103835287818151815260200191508051906020019080838360005b83811015610c7c578082015181840152602081019050610c61565b50505050905090810190601f168015610ca95780820380516001836020036101000a031916815260200191505b50838103825286818151815260200191508051906020019080838360005b83811015610ce2578082015181840152602081019050610cc7565b50505050905090810190601f168015610d0f5780820380516001836020036101000a031916815260200191505b5097505050505050505060405180910390a15050565b828054600181600116156101000203166002900490600052602060002090601f016020900481019282601f10610d6657805160ff1916838001178555610d94565b82800160010185558215610d94579182015b82811115610d93578251825591602001919060010190610d78565b5b509050610da19190610ded565b5090565b60a060405190810160405280600081526020016060815260200160608152602001600015158152602001600073ffffffffffffffffffffffffffffffffffffffff1681525090565b610e0f91905b80821115610e0b576000816000905550600101610df3565b5090565b9056fea165627a7a723058206a4e6ffdf7a5ec271525c5021b31cbdff67d2cb7685e93d15b3f090835c263d10029",
  "source": "pragma solidity ^0.5.0;\r\n\r\ncontract AirportDatabase {\r\n    uint256 public postCount = 0;\r\n\r\n    mapping(uint256 => Post) public posts;\r\n\r\n    struct Post {\r\n        uint256 id;\r\n        string filehash;\r\n        string filename;\r\n        bool approval_status;\r\n        address payable author;\r\n    }\r\n\r\n    event PostCreated(\r\n        uint256 id,\r\n        string filehash,\r\n        string filename,\r\n        bool approval_status,\r\n        address payable author\r\n    );\r\n\r\n    event PostApproved(\r\n        uint256 id,\r\n        string filehash,\r\n        string filename,\r\n        bool approval_status,\r\n        address payable author\r\n    );\r\n\r\n    function createPost(string memory _filehash, string memory _filename)\r\n        public\r\n    {\r\n        // Require Valid Content\r\n        require(bytes(_filehash).length > 0, \"FileHash should not be Empty\");\r\n        require(bytes(_filename).length > 0, \"FileName should not be Empty\");\r\n        // Increment the post count\r\n        postCount++;\r\n        // Create the post\r\n        posts[postCount] = Post(\r\n            postCount,\r\n            _filehash,\r\n            _filename,\r\n            false,\r\n            msg.sender\r\n        );\r\n\r\n\r\n        // Trigger Event\r\n        emit PostCreated(postCount, _filehash, _filename, false, msg.sender);\r\n    }\r\n\r\n    function approvePost(uint256 _id) public payable {\r\n        // Make sure the id is Valid\r\n        require(_id > 0 && _id <= postCount, \"Post doesnot exist Yet\");\r\n        // Fetch the post\r\n        Post memory _post = posts[_id];\r\n        // Increment the tip Amount\r\n        _post.approval_status = true;\r\n        // Update the post\r\n        posts[_id] = _post;\r\n        // Trigger an event\r\n        emit PostApproved(\r\n            postCount,\r\n            _post.filehash,\r\n            _post.filename,\r\n            _post.approval_status,\r\n            _post.author\r\n        );\r\n    }\r\n\r\n}\r\n",
  "sourcePath": "D:/Suhaib/Programs/DAPPS/AirportHackathon/src/contracts/AirportDatabase.sol",
  "compiler": {
    "name": "solc",
    "version": "0.5.0+commit.1d4f565a.Emscripten.clang"
  },
  "schemaVersion": "3.0.2",
  "updatedAt": "2020-01-31T04:45:38.693Z",
  "devdoc": {
    "methods": {}
  },
  "userdoc": {
    "methods": {}
  }
}